:020000040800F2
:10000000000003200D22000865220008DD20000802
:10001000E5200008ED200008F520000800000000A1
:10002000000000000000000000000000FD200008AB
:100030000B210008000000001921000827210008FA
:10004000652200086522000865220008B920000822
:100050006522000865220008652200086522000864
:100060006522000865220008652200086522000854
:100070006522000865220008652200086522000844
:100080006522000865220008652200086522000834
:100090006522000865220008652200086522000824
:1000A0006522000865220008652200086522000814
:1000B0006522000865220008652200086522000804
:1000C00065220008652200086522000865220008F4
:1000D00065220008652200086522000865220008E4
:1000E0003321000865220008652200086522000807
:1000F000C5200008D120000843210008652200081F
:1001000065220008652200086522000865220008B3
:1001100065220008652200086522000865220008A3
:100120006522000865220008652200086522000893
:0C01300065220008652200086522000816
:10013C0010B5054C237833B9044B13B10448AFF315
:10014C0000800123237010BD08090020000000006E
:10015C0014A8000808B5034B1BB103490348AFF3BF
:10016C00008008BD000000000C09002014A8000845
:10017C00034613F8012B002AFBD1181A01387047DB
:10018C0053B94AB9002908BF00281CBF4FF0FF31F2
:10019C004FF0FF3000F06AB9ADF1080C6DE904CEF8
:1001AC0000F006F8DDF804E0DDE9022304B0704746
:1001BC002DE9F047089D0C46002B4ED194468C45FA
:1001CC008646B2FA82F262D94AB1C2F1200391405A
:1001DC0020FA03F30CFA02FC194300FA02FE4FEA70
:1001EC001C471FFA8CF6B1FBF7F44FEA1E4307FBD2
:1001FC00141143EA014304FB06F199420AD91CEBA2
:10020C00030304F1FF3080F01281994240F20F8118
:10021C00023C6344591A1FFA8EF3B1FBF7F007FB4B
:10022C00101143EA014300FB06F69E420AD91CEB6F
:10023C00030300F1FF3180F0FC809E4240F2F98014
:10024C00634402389B1B40EA044000211DB1D3409B
:10025C000022C5E90032BDE8F0878B4205D90DB10B
:10026C00C5E9000100210846F5E7B3FA83F100293E
:10027C0046D1A34202D39042C0F0F080861A64EBC0
:10028C0003030120002DE6D0C5E90063E3E7002A53
:10029C0040F09080A1EB0C044FEA1C481FFA8CF73D
:1002AC000121B4FBF8F64FEA1E4308FB164443EA5F
:1002BC00044307FB06F0984208D91CEB030306F134
:1002CC00FF3402D2984200F2CD8026461C1A1FFA47
:1002DC008EF3B4FBF8F008FB104443EA044300FB34
:1002EC0007F79F4208D91CEB030300F1FF3402D23D
:1002FC009F4200F2B0802046DB1B40EA0640A5E797
:10030C00C1F120068B4022FA06F71F4320FA06FCA7
:10031C0004FA01F343EA0C03F44000FA01F8380C38
:10032C004FEA1349B4FBF0FE1FFA87FC00FB1E4496
:10033C0049EA04440EFB0CF9A14502FA01F20AD970
:10034C003C190EF1FF3A80F08480A14540F2818087
:10035C00AEF1020E3C44A4EB09041FFA83F9B4FB82
:10036C00F0F300FB134449EA044403FB0CFCA445E2
:10037C0007D93C1903F1FF3067D2A44565D9023B7C
:10038C003C4443EA0E40A0FB0293A4EB0C049C42B9
:10039C00CE469C4651D34ED055B1B8EB0E0364EB10
:1003AC000C0404FA06F6CB401E43CC40C5E90064AD
:1003BC00002150E7C2F1200320FA03F10CFA02FCF1
:1003CC0024FA03F394400C434FEA1C4800FA02FE53
:1003DC001FFA8CF7B3FBF8F008FB1031230C43EA3F
:1003EC00014300FB07F1994208D91CEB030300F110
:1003FC00FF362CD299422AD9023863445B1AA4B234
:10040C00B3FBF8F108FB113344EA034401FB07F397
:10041C00A34208D91CEB040401F1FF3613D2A3420A
:10042C0011D902396444E41A41EA004139E704461F
:10043C00F0E6084606E7C845AED2B9EB020E63EB10
:10044C00070C0138A8E73146EDE7034699E730463B
:10045C00D4E7D6467FE7634402384DE70646234689
:10046C0008460FE7023E634430E700BF704700BF09
:10047C00B0B588B000AF0B4B3C1D1D460FCD0FC463
:10048C0095E8070003C422800234130C237008F093
:10049C0017FD3B1D184607F0B2FF00BF2037BD46C5
:1004AC00B0BD00BF2CA8000880B483B000AF78604A
:1004BC00074BD3F8803023F0070205497B681343C0
:1004CC00C1F8803000BF0C37BD465DF8047B704727
:1004DC000004005880B483B000AF7860064BD3F8AA
:1004EC00902005497B681343C1F8903000BF0C374E
:1004FC00BD465DF8047B70470008005880B483B09B
:10050C0000AF78604FF0B0430A4AC3F89C204FF01C
:10051C00B043D3F89C3023F47C527B681B024FF021
:10052C00B0411343C1F89C3000BF0C37BD465DF899
:10053C00047B7047FECAFECA80B483B000AF7860FB
:10054C004FF0B0439B6823F400424FF0B0417B68FE
:10055C0013438B6000BF0C37BD465DF8047B7047BE
:10056C0080B400AF4FF0B043D3F890304FF0B042AE
:10057C0043F48033C2F8903000BFBD465DF8047B75
:10058C00704780B400AF4FF0B043D3F890304FF0C9
:10059C00B04223F48033C2F8903000BFBD465DF802
:1005AC00047B704780B400AF4FF0B043D3F8943065
:1005BC0003F08063B3F1806F01D1012300E00023CD
:1005CC001846BD465DF8047B704780B400AF4FF011
:1005DC00B043D3F8943003F08053B3F1805F01D172
:1005EC00012300E000231846BD465DF8047B7047EC
:1005FC0080B485B000AF78604FF0B0431A6D4FF007
:10060C00B0417B6813430B654FF0B0431A6D7B68A8
:10061C001340FB60FB6800BF1437BD465DF8047BDC
:10062C007047000080B400AF044B1B68C3F30B038E
:10063C001846BD465DF8047B704700BF002004E0FF
:10064C0080B400AF044B1B681B0C9BB21846BD4614
:10065C005DF8047B704700BF002004E080B483B0D9
:10066C0000AF786039607B685A683B681B041A439A
:10067C007B685A6000BF0C37BD465DF8047B704741
:10068C0080B483B000AF786039607B685A683B688F
:10069C001A437B685A6000BF0C37BD465DF8047B7B
:1006AC00704780B483B000AF786039607B685A695A
:1006BC003B681B041A437B685A6100BF0C37BD466C
:1006CC005DF8047B704780B483B000AF786039600C
:1006DC007B685A693B681A437B685A6100BF0C37C8
:1006EC00BD465DF8047B704780B483B000AF786082
:1006FC0039607B683A689A6000BF0C37BD465DF87C
:10070C00047B704780B483B000AF786039607B683D
:10071C003A689A6100BF0C37BD465DF8047B7047A0
:10072C0080B483B000AF78607B68FF225A6200BF50
:10073C000C37BD465DF8047B704780B483B000AFC6
:10074C0078607B68CA225A627B6853225A6200BF67
:10075C000C37BD465DF8047B704780B483B000AFA6
:10076C00786039607B689B6823F007023B681A430A
:10077C007B689A6000BF0C37BD465DF8047B704700
:10078C0080B500AF044B4FF400421A6100F037F80B
:10079C0000F076F800BF80BD0040005880B500AF77
:1007AC0000F082F800F09AF80349002000F0BAFD3E
:1007BC0000F0A2F800BF80BD7C0A002080B400AF1E
:1007CC0000BFBD465DF8047B704780B500AF50207C
:1007DC00FFF780FE00BF80BD80B582B000AF03463E
:1007EC00FB80FB88B3F5805F04D10021022009F067
:1007FC00B5FE00E000BF00BF0837BD4680BD80B528
:10080C0000AF00F004F800F019F800BF80BD80B50F
:10081C0000AFFFF7C7FE0346002B0DD0FFF7D5FE48
:10082C000346002B08D103F0D9F803F0D7F8FFF7F3
:10083C0097FEFFF7A6FE00BF00BF80BD80B500AFDE
:10084C004FF48010FFF7D4FE3F210C48FFF74CFF0C
:10085C003F210A48FFF756FF3F210848FFF7FEFEED
:10086C003F210648FFF71DFF3F210448FFF708FF13
:10087C003F210248FFF727FF00BF80BD000C005846
:10088C0080B582B000AF002008F0A6FB78607B68D2
:10089C00002B05D07B689B791846FFF72FFE00BF15
:1008AC0000BF0837BD4680BD80B500AFFFF786FF9F
:1008BC00FFF78BFF00F002F800BF80BD80B500AFE2
:1008CC000548FFF73AFF00210348FFF746FF0248AF
:1008DC00FFF726FF00BF80BD0028004080B500AFA9
:1008EC004FF40040FFF728FE09F0D8FC0420FFF776
:1008FC00DBFD00BF80BD000080B588B000AF08F004
:10090C0029F9114A0021082009F006FE0F4B3B6023
:10091C000F4B7B603B4619460E4807F0E1FF0E4B30
:10092C00BB600E4BFB600E4B3B6140F23C537B615A
:10093C0007F10803184608F04FFA08F005F900BF54
:10094C002037BD4680BD00BF2589000880050020EA
:10095C007109000889090008980700208C060020FE
:10096C004400002080B483B000AF0346FB7100BF8D
:10097C000C37BD465DF8047B7047000080B588B02D
:10098C0000AF78607B685B680B33FB61FB691B888D
:10099C009BB2A3F51243072B1FD801A252F823F0E8
:1009AC00CD090008DF090008E7090008E70900087D
:1009BC00E7090008E7090008E7090008E70900084B
:1009CC0007F10C03184607F047FD786800F01BF898
:1009DC0004E0786800F006F800E000BF00BF2037A4
:1009EC00BD4680BD80B485B000AF78607B685B6825
:1009FC000B33FB60FB680233BB6000BF1437BD4692
:100A0C005DF8047B704780B58AB000AF786007F161
:100A1C00080300221A605A609A60DA6000237B6235
:100A2C0000233B627B685B680B33FB61FB69023321
:100A3C00BB61BB691B78002B1DD1FFF719FD0F2380
:100A4C003B727F23BB72FFF7FBFD78627B6A9BB224
:100A5C00BB82FFF7E7FD38623B6A9BB2FB8207F172
:100A6C000803184607F0E2FC08F0C0FB0021012047
:100A7C0009F026FC07E0BB691B78012B03D17B68CE
:100A8C0000221A7000BF00BF2837BD4680BD80B45D
:100A9C0000AF00BFBD465DF8047B704780B582B0E7
:100AAC0000AF786039604FF0FF3009F039FC00BFBF
:100ABC000837BD4680BD80B582B000AF786000219C
:100ACC00082009F04BFD00BF0837BD4680BD80B53E
:100ADC0082B000AF7860022009F0ACFD00BF08378F
:100AEC00BD4680BD80B582B000AF7860022009F0B1
:100AFC00C1FD00BF0837BD4680BD000080B483B087
:100B0C0000AF7860064BD3F8802005497B6813430F
:100B1C00C1F8803000BF0C37BD465DF8047B7047D0
:100B2C000008005880B483B000AF7860054B1A6899
:100B3C0004497B6813430B6000BF0C37BD465DF85E
:100B4C00047B70470008005880B483B000AF0D4B95
:100B5C009B6A9BB27B600B4B9B6A9BB23B6005E034
:100B6C003B687B60074B9B6A9BB23B607A683B6837
:100B7C009A42F5D13B6818460C37BD465DF8047BAC
:100B8C00704700BF0028004080B485B000AF03461A
:100B9C000A46FB711346BB71BA791D4913465B00BB
:100BAC001344DB000B4415331B78FB73FB7B062BC8
:100BBC0009D0FA7B164913465B001344DB000B4447
:100BCC001433FA791A70FA79114913465B001344FD
:100BDC00DB000B441533FA7B1A70FA790C49134677
:100BEC005B001344DB000B441433BA791A70BA79E6
:100BFC00074913465B001344DB000B441533FA79A9
:100C0C001A7000BF1437BD465DF8047B704700BFF7
:100C1C002409002080B485B000AF03460A46FB715E
:100C2C001346BB71294B1B78DBB2BA799A4232D08E
:100C3C00BA79274913465B001344DB000B44143389
:100C4C001B78FB73FA7B224913465B001344DB00D1
:100C5C000B441533FA791A70FA791D4913465B0067
:100C6C001344DB000B441533BA791A70FA7918491E
:100C7C0013465B001344DB000B441433FA7B1A70ED
:100C8C00BA79134913465B001344DB000B4414334D
:100C9C00FA791A7014E0FA790D4913465B00134483
:100CAC00DB000B441533BA791A70BA79084913462C
:100CBC005B001344DB000B441433FA791A7000BF49
:100CCC001437BD465DF8047B704700BFB4090020A3
:100CDC002409002080B584B000AF0346FB714E4B55
:100CEC001B78DBB2062B18D14B4B1B78DAB24B4B73
:100CFC001A70494AFB791370FA79494913465B001B
:100D0C001344DB000B44153306221A70454B4FF08D
:100D1C00FF321A600023FB8178E000F009F90346EA
:100D2C00FB81FA793E4913465B001344DB000B440C
:100D3C0008331968FB89FA791944394813465B0062
:100D4C001344DB00034408331960FA793449134621
:100D5C005B001344DB000B4408331B68BB602E4B59
:100D6C001B78DBB219462E4A0B465B000B44DB00AA
:100D7C00134408331B68BA689A4237D3264B1B7846
:100D8C007B737A7B264913465B001344DB000B44D0
:100D9C0015331B783B7313E07A7B214913465B00B8
:100DAC001344DB000B4415331B787B737A7B1C4993
:100DBC0013465B001344DB000B4415331B783B7369
:100DCC003B7B062B0BD03A7B154913465B00134437
:100DDC00DB000B4408331B68BA689A42DCD27A7B7E
:100DEC00FB7911461846FFF7CFFE0FE00A4B1B7834
:100DFC00DAB2FB7911461846FFF70CFF064B1B784D
:100E0C00DAB2064B1A70044AFB791370FB89184648
:100E1C001037BD4680BD00BFB4090020B5090020C5
:100E2C0024090020B809002080B485B000AF034627
:100E3C000A46FB711346BB71394B1B78DBB2FA794E
:100E4C009A4211D1364B1B78DAB2364B1A70FA79BA
:100E5C00354913465B001344DB000B4415331B78F8
:100E6C00DAB22F4B1A703EE0FA792F4913465B0029
:100E7C001344DB000B4414331B78FB73FA792A49B7
:100E8C0013465B001344DB000B4415331B78BB7318
:100E9C00F979FA7B24480B465B000B44DB000344D6
:100EAC0015331B78D8B2204913465B001344DB0082
:100EBC000B44153302461A70BB7B062B13D0F97901
:100ECC00BA7B19480B465B000B44DB00034414331C
:100EDC001B78D8B2144913465B001344DB000B4457
:100EEC00143302461A70FA790F4913465B00134407
:100EFC00DB000B440C3301221A70094B1B78DBB25C
:100F0C00062B07D1BB79002B04D1084B4FF0FF32D5
:100F1C001A6000BF00BF1437BD465DF8047B7047F4
:100F2C00B4090020B509002024090020B8090020CC
:100F3C0080B582B000AF1A4B1B68B3F1FF3F26D0CF
:100F4C00FFF702FE7860164B1B687A689A4205D848
:100F5C00134B1A687B68D31A7B600AE0114B1B8811
:100F6C001A467B68D31A3B600D4B1B683A681344D6
:100F7C007B600D4B1B781A467B6802FB03F37B608E
:100F8C000A4B1B781A467B68D3407B6001E0002338
:100F9C007B607B689BB218460837BD4680BD00BF9E
:100FAC00B8090020C0090020BE090020BD0900209E
:100FBC0080B582B000AF0346FB80FB88002B08D1C4
:100FCC00FFF7C2FD0346214A1360032002F0E7F944
:100FDC0039E0FB88012B03D81D4B1B78012B02D069
:100FEC00FB88013BFB8000BF1A4B1B68DB6803F0DE
:100FFC000403002BF8D0174B1B68DB68DAB2154BD7
:10100C001B6862F49062DA60134B4FF40022DA60D2
:10101C00032002F0D2F9114B5B691B0C1B04FA88FC
:10102C000E4913434B61FFF78FFD0346074A1360CC
:10103C00084B1B689A68074B1B6842F480629A60E5
:10104C00AFF3008000BF0837BD4680BDB809002053
:10105C00BD0900207C0A0020000800580028004030
:10106C0080B584B000AF454B9B6803F48063B3F547
:10107C00806F07D100BF424B1B68DB6803F0040391
:10108C00002BF8D13E4B1B689A683D4B1B6822F431
:10109C0080629A603B4B1B78FB73FA7B3A49134690
:1010AC005B001344DB000B4408331B68BB60FFF789
:1010BC003FFF0346FB80FB88BA689A4205D20023A7
:1010CC00BB81324B01221A704DE0FB88304A1288EA
:1010DC0092B213441A46BB68934206D92C4B1B8818
:1010EC00BB812A4B00221A703DE0BB689AB2FB8888
:1010FC00D31ABB81254B01221A7034E0FA7B2249AA
:10110C0013465B001344DB000B4408331A68FB885E
:10111C009A420AD2FA7B1C4913465B001344DB004B
:10112C000B44083300221A6013E0FA7B164913466D
:10113C005B001344DB000B4408331968FB88FA7B13
:10114C00C91A114813465B001344DB0003440833EF
:10115C001960FA7B0C4913465B001344DB000B440B
:10116C0015331B78FB73FB7B062BC7D1BB89184649
:10117C00FFF71EFF00BF1037BD4680BD00280040A2
:10118C007C0A0020B409002024090020BC0900209E
:10119C00C209002080B58AB000AFEFF310837B61E9
:1011AC007B697B6272B600BF594B1B68CA225A62BC
:1011BC00574B1B6853225A62554B1B689A68544B09
:1011CC001B6822F480629A60524B1B7887F823309C
:1011DC0097F82320504913465B001344DB000B4463
:1011EC000C331B78DBB2022B6ED197F823204A49C3
:1011FC0013465B001344DB000B441B68FB6197F840
:10120C002320454913465B001344DB000B44103389
:10121C001B68BB61414B1B78DBB2002B4CD097F8A1
:10122C0023203D4913465B001344DB000B440D3374
:10123C001B78DBB2012B24D197F8233001211846FF
:10124C00FFF7F2FD7B6A3B613B6983F3108800BFBB
:10125C0097F82320304913465B001344DB000B4402
:10126C0004331A6897F823301146184600F032FA06
:10127C00274B1B68CA225A62254B1B6853225A62A1
:10128C0012E07B6AFB60FB6883F3108800BF97F861
:10129C002330184600F09AF91D4B1B68CA225A627B
:1012AC001B4B1B6853225A6297F82330FA69194674
:1012BC00B86900F095FA22E0FFF7D2FE7B6ABB60BA
:1012CC00BB6883F310881AE000BF114B1B68DB6806
:1012DC0003F00403002BF8D00D4B1B68DB68DAB26B
:1012EC000B4B1B6862F49062DA600D4B4FF40022DA
:1012FC00DA607B6A7B607B6883F3108800BF044BE9
:10130C001B68FF225A6200BF2837BD4680BD00BF54
:10131C007C0A0020B409002024090020BC0900200C
:10132C000008005880B588B000AF03463960FB71E7
:10133C005E4B1B68CA225A625C4B1B6853225A6272
:10134C005B4B9B685A4A43F020039360584B9B6855
:10135C00DBB203F00703DBB2C3F10403DAB2554B83
:10136C001A70534B1B6903F4FE034FF4FE023A61EF
:10137C003A6992FAA2F2FA60FA687A617A69002AFA
:10138C0001D1202203E07A69B2FA82F2D2B2D340C0
:10139C00DBB20133DAB2484B1A70454B1B699BB276
:1013AC00C3F30E039BB201339AB2444B1A80434BE6
:1013BC001B88013B404A127802FB03F3A3F5A07390
:1013CC003C4A1278D340BB61BB694FF6FE72934224
:1013DC0004D93B4B4FF6FF721A8003E0BB699AB2FB
:1013EC00374B1A804FF40020FFF79CFB4FF4002082
:1013FC00FFF784FBFB79002B3DD1324B01221A7095
:10140C00314B4FF0FF321A600023FB770CE0FA7F70
:10141C002E4913465B001344DB000B440C330022B3
:10142C001A70FB7F0133FB77FB7F052BEFD9284B21
:10143C0006221A701D4B1B689A681C4B1B6822F401
:10144C0080629A60194B1B68DB68DAB2174B1B6819
:10145C0062F49062DA601F4B4FF40022DA600320D2
:10146C0001F0ABFF114B1B689A68104B1B6842F4E0
:10147C0080429A6009E00D4B1B68DB6803F48063C3
:10148C00002B02D0032001F08AFF084B1B68FF22BF
:10149C005A6200220321032001F03FFF032001F0D8
:1014AC0056FF00BF2037BD4680BD00BF7C0A002020
:1014BC0000280040BD090020BE090020C009002002
:1014CC00C2090020BC090020B80900202409002012
:1014DC00B40900200008005880B48BB000AFF8604D
:1014EC00B9603B601346FB71002387F82630EFF39D
:1014FC001083FB61FB693B6272B600BF04E097F896
:10150C002630013387F8263097F82630052B0CD877
:10151C0097F826202C4913465B001344DB000B4440
:10152C000C331B78DBB2002BE9D197F82630062B55
:10153C0038D097F82620244913465B001344DB006F
:10154C000B440C3301221A703B6ABB61BB6983F3F9
:10155C00108800BF97F826201B4913465B001344E4
:10156C00DB000B441033FA681A6097F826201649F2
:10157C0013465B001344DB000B440D33FA791A70ED
:10158C0097F82620104913465B001344DB000B44EC
:10159C003A681A60BB6897F826201A70002387F8FF
:1015AC00273008E03B6A7B617B6983F3108800BFBE
:1015BC00012387F8273097F8273018462C37BD467B
:1015CC005DF8047B704700BF2409002080B586B00D
:1015DC0000AF0346FB71EFF31083FB60FB687B618C
:1015EC0072B600BF032001F0C0FE344B1B68CA2248
:1015FC005A62324B1B6853225A62FA7930491346AD
:10160C005B001344DB000B440C331B78DBB2022B66
:10161C0042D1FB7900211846FFF706FC294B1B78B9
:10162C00FB74FB7C062B2FD1274B9B6803F4806348
:10163C00B3F5806F07D100BF204B1B68DB6803F04C
:10164C000403002BF8D11D4B1B689A681B4B1B68BD
:10165C0022F480629A6000BF184B1B68DB6803F0B1
:10166C000403002BF8D0154B1B68DB68DAB2134B64
:10167C001B6862F49062DA60144B4FF40022DA605B
:10168C00032001F09AFE07E0114B1B78DBB2FA7CC9
:10169C009A4201D0FFF7E4FC084B1B68FF225A6208
:1016AC00032001F054FE7B69BB60BB6883F3108898
:1016BC0000BF00BF1837BD4680BD00BF7C0A0020AC
:1016CC0024090020B409002000280040000800581C
:1016DC00B509002080B586B000AF03463960FB71B8
:1016EC00FA793B4913465B001344DB000B440C3383
:1016FC001B78DBB2022B03D1FB791846FFF766FF90
:10170C00EFF31083FB60FB687B6172B600BF0320B4
:10171C0001F02BFE2F4B1B68CA225A622D4B1B6803
:10172C0053225A62FA792A4913465B001344DB00B0
:10173C000B440C3302221A70FA79254913465B00CC
:10174C001344DB000B4408333A681A60FA792049D9
:10175C0013465B001344DB000B4404333A681A60F5
:10176C00FB791846FFF7B6FA03467B821A4B1B78B7
:10177C007B741A4B1B78DBB27A7C9A4202D0FFF74F
:10178C006FFC13E0FA79124913465B001344DB003B
:10179C000B44083319687B8AFA79C91A0C4813462A
:1017AC005B001344DB00034408331960094B1B68CE
:1017BC00FF225A62032001F0CAFD7B69BB60BB6843
:1017CC0083F3108800BF00BF1837BD4680BD00BF33
:1017DC00240900207C0A0020B4090020B50900204F
:1017EC0080B584B000AFF8600B467A60FB727B6802
:1017FC00984700BF1037BD4680BD80B485B000AFA0
:10180C0078604FF0B0439A6C4FF0B0417B68134353
:10181C008B644FF0B0439A6C7B681340FB60FB68A1
:10182C0000BF1437BD465DF8047B704780B485B0AB
:10183C0000AF78604FF0B043DA6C4FF0B0417B688A
:10184C001343CB644FF0B043DA6C7B681340FB60FE
:10185C00FB6800BF1437BD465DF8047B704780B54C
:10186C0000AF00F0FBFCFEF78BFF00F019F800F066
:10187C0087F800F027FA00F003FA00F077F900F08F
:10188C004BF900F0B1F900F09BF800F0FDF800F016
:10189C003BF9FEF783FF4FF0FF3008F041FDFAE70C
:1018AC0080B59AB000AF07F12003482200211846FA
:1018BC0008F070FF3B1D00221A605A609A60DA60D3
:1018CC001A615A619A614FF0B043DB684FF0B04235
:1018DC0023F07003D3604FF0B043DB6823F00303B5
:1018EC004FF0B04243F00103D360244B1B6823F448
:1018FC00C063224A43F400731360204B1B6803F44B
:10190C00C0633B603B682B233B624FF480337B62AC
:10191C004FF48073FB620123FB6340233B63002382
:10192C003B6460237B6405237B630023FB6407F12A
:10193C002003184602F0E6FB0346002B01D000F012
:10194C0035FA6F237B600223BB600023FB6000230E
:10195C003B6100237B610023BB610023FB613B1DCA
:10196C000121184602F042FF0346002B01D000F083
:10197C001DFA00BF6837BD4680BD00BF000400588B
:10198C0080B594B000AF3B4650220021184608F0B9
:10199C0001FF4FF440533B604FF440437B64002302
:1019AC00BB641023FB643B46184603F05CFB034608
:1019BC00002B01D000F0FAF900BF5037BD4680BDB6
:1019CC0080B586B000AF3B4600221A605A609A6020
:1019DC00DA601A615A61294B294A1A60274B002296
:1019EC005A60264B00229A60244B0022DA60234B6B
:1019FC0000221A61214B04225A61204B00221A76D4
:101A0C001E4B00225A761D4B0122DA611B4B002221
:101A1C0083F82020194B00229A62184B0022DA62BC
:101A2C00164B002283F83020144B00225A63134BC0
:101A3C00002283F83820114800F022FE0346002BC8
:101A4C0001D000F0B3F90F4B3B6006237B60002301
:101A5C00BB607F23FB6004233B6100237B613B461F
:101A6C001946064800F058FF0346002B01D000F041
:101A7C009DF900BF1837BD4680BD00BFC4090020CA
:101A8C00000004500001802180B500AF1B4B1C4AA4
:101A9C001A601A4B1B4A5A60184B00229A60174B5B
:101AAC000122DA60154B00221A61144B00225A6194
:101ABC00124B00229A61114B0022DA610F4B00226B
:101ACC001A620E4801F064FE0346002B01D000F0B0
:101ADC006DF90021094801F0EAFE0346002B01D004
:101AEC0000F064F90021054801F02CFF0346002B9F
:101AFC0001D000F05BF900BF80BD00BF280A0020B8
:101B0C0000540040BB7C700080B400AF00BFBD46E9
:101B1C005DF8047B7047000080B500AF114B124A92
:101B2C001A60104B00225A600E4B0F229A600D4B1C
:101B3C0047F6FF72DA600B4B00221A61094B002248
:101B4C009A61084B0022DA61064B00225A61054863
:101B5C0003F010FD0346002B01D000F027F900BF65
:101B6C0080BD00BF7C0A00200028004080B500AF7B
:101B7C001B4B1C4A1A601A4B4FF482725A60184B5A
:101B8C0000229A60164B4FF4E062DA60144B00228C
:101B9C001A61134B01225A61114B4FF400729A6176
:101BAC000F4B0822DA610E4B00221A620C4B0022FA
:101BBC005A620B4B00229A62094B0722DA62084BDD
:101BCC0000221A63064B08225A63054803F0D2FD23
:101BDC000346002B01D000F0E9F800BF80BD00BF28
:101BEC00A00A00200030014080B500AF224B234AF0
:101BFC001A60214B4FF4E1325A601F4B00229A605D
:101C0C001D4B0022DA601C4B00221A611A4B0C226D
:101C1C005A61194B00229A61174B0022DA61164B5C
:101C2C0000221A62144B00225A62134B00229A6251
:101C3C00114804F047FB0346002B01D000F0B6F826
:101C4C0000210D4805F012F80346002B01D000F0DE
:101C5C00ADF80021084805F047F80346002B01D0E9
:101C6C0000F0A4F8044804F0C8FF0346002B01D090
:101C7C0000F09CF800BF80BD040B00200038014030
:101C8C0080B500AF0420FFF7B8FD0120FFF7B5FDCC
:101C9C00002200210B2001F040FB0B2001F057FB30
:101CAC00002200210C2001F038FB0C2001F04FFB2E
:101CBC00002200210D2001F030FB0D2001F047FB2C
:101CCC0000BF80BD80B586B000AF3B1D00221A60FE
:101CDC005A609A60DA601A610220FFF7A7FD0120B2
:101CEC00FFF7A4FD00224FF402614FF0904001F089
:101CFC00FBFC10237B600023BB600023FB603B1DBF
:101D0C0019464FF0904001F067FB4FF402637B6083
:101D1C000123BB600023FB6000233B613B1D194684
:101D2C004FF0904001F058FB4FF480537B604FF420
:101D3C008813BB600023FB603B1D19464FF090409D
:101D4C0001F04AFB00220021282001F0E6FA2820AD
:101D5C0001F0FDFA00220821134801F0C5FC08230C
:101D6C007B600123BB600023FB6000233B613B1DB8
:101D7C0019460D4801F030FB012204214FF0904030
:101D8C0001F0B2FC04237B600123BB600023FB60E9
:101D9C0000233B613B1D19464FF0904001F01CFBAA
:101DAC0000BF1837BD4680BD0004004880B400AFAA
:101DBC0072B600BF00BFFDE780B400AF4FF0B04378
:101DCC00D3F890304FF0B04243F40043C2F8903057
:101DDC0000BFBD465DF8047B704780B485B000AF92
:101DEC0078604FF0B043DA6C4FF0B0417B6813432E
:101DFC00CB644FF0B043DA6C7B681340FB60FB683C
:101E0C0000BF1437BD465DF8047B704780B485B0C5
:101E1C0000AF78604FF0B0431A6D4FF0B0417B6863
:101E2C0013430B654FF0B0431A6D7B681340FB6096
:101E3C00FB6800BF1437BD465DF8047B704780B467
:101E4C0085B000AF78604FF0B0439A6D4FF0B04161
:101E5C007B6813438B654FF0B0439A6D7B681340DE
:101E6C00FB60FB6800BF1437BD465DF8047B704710
:101E7C0080B485B000AF78604FF0B0431A6E4FF06D
:101E8C00B0417B6813430B664FF0B0431A6E7B680E
:101E9C001340FB60FB6800BF1437BD465DF8047B44
:101EAC00704780B500AF4FF40020FFF7AFFF002262
:101EBC0000212E2001F031FA2E2001F048FA00BF4B
:101ECC0080BD000080B59CB000AF786007F15C036A
:101EDC0000221A605A609A60DA601A6107F10C03EA
:101EEC0050220021184608F055FC7B681B681C4AE0
:101EFC00934231D14FF48063FB6018233B614FF464
:101F0C0000337B614FF00073BB614FF00053FB61FA
:101F1C004FF080533B624FF08053BB6407F10C03CE
:101F2C00184603F0A0F80346002B01D0FFF73EFF44
:101F3C004FF40050FFF751FF0120FFF74EFF08232D
:101F4C00FB6503233B6600237B6607F15C031946A4
:101F5C004FF0904001F040FA00BF7037BD4680BD95
:101F6C000000045080B59CB000AF786007F15C03B2
:101F7C0000221A605A609A60DA601A6107F10C0349
:101F8C0050220021184608F005FC7B681B68164A95
:101F9C00934225D10423FB60144BFB6207F10C0325
:101FAC00184603F060F80346002B01D0FFF7FEFE45
:101FBC000220FFF712FF4FF44073FB6512233B66C0
:101FCC0000237B660023BB660423FB6607F15C03DE
:101FDC001946074801F000FA4FF40010FFF72FFFE5
:101FEC0000BF7037BD4680BD0054004000020300A6
:101FFC000004004880B596B000AF786007F1080384
:10200C0050220021184608F0C5FB7B681B680E4A5D
:10201C00934215D14FF40063BB604FF40073BB6463
:10202C0007F10803184603F01EF80346002B01D0F5
:10203C00FFF7BCFEFFF7C0FE4FF48060FFF7FFFE1A
:10204C0000BF5837BD4680BD0028004080B588B021
:10205C0000AF786007F10C0300221A605A609A6096
:10206C00DA601A617B681B680F4A934217D14FF4F0
:10207C008050FFF7FDFE0120FFF7AFFEC223FB608F
:10208C0002233B6100237B610023BB610523FB61C1
:10209C0007F10C0319464FF0904001F09DF900BF79
:1020AC002037BD4680BD00BF0030014080B500AF79
:1020BC00FFF770F800BF80BD80B500AF07F0B0FF30
:1020CC0000BF80BD80B500AF07F0E0FF00BF80BD52
:1020DC0080B400AF00BFFDE780B400AF00BFFDE7E8
:1020EC0080B400AF00BFFDE780B400AF00BFFDE7D8
:1020FC0080B400AF00BFBD465DF8047B704780B470
:10210C0000AF00BFBD465DF8047B704780B400AFE4
:10211C0000BFBD465DF8047B704780B500AF00F092
:10212C00F7F800BF80BD80B500AF4FF4805001F0D0
:10213C00F3FA00BF80BD80B500AF01F005FB00BF16
:10214C0080BD000080B400AF244BD3F88830234A04
:10215C0043F47003C2F888304FF0B0431B684FF063
:10216C00B04243F0010313604FF0B0434FF4E02250
:10217C009A604FF0B0431A684FF0B041184B1340BF
:10218C000B604FF0B043D3F894304FF0B04223F0D3
:10219C000503C2F894304FF0B043D3F898304FF0A9
:1021AC00B04223F00103C2F898304FF0B0430D4A0F
:1021BC00DA604FF0B0430B4A1A614FF0B0431B6822
:1021CC004FF0B04223F4802313604FF0B043002251
:1021DC009A6100BFBD465DF8047B704700ED00E0DE
:1021EC00FBFEF6FA00100422D458C4500433C41871
:1021FC008C42F9D37047036004308842FBD370479C
:10220C000C488546FFF79EFF0B480C490C4A0023EF
:10221C00FFF7EDFF0B480C490C4A0023FFF7E7FFD3
:10222C000B480C490023FFF7E8FF08F0BBFAFFF757
:10223C0016FBFEE700000320080000203000002001
:10224C0004AB0008E3010320E3010320FDB3000805
:10225C0008090020E80D0020FEE7000080B582B0E0
:10226C0000AF0023FB710C4B1B680B4A43F48073CB
:10227C001360032001F046F80F2000F00FF803461E
:10228C00002B02D00123FB7101E0FFF70AFEFB7962
:10229C0018460837BD4680BD0040005880B584B054
:1022AC0000AF78600023FB73174B1B78002B24D0F6
:1022BC0002F048FC0246144B1B7819464FF47A7313
:1022CC00B3FBF1F3B2FBF3F3184601F05CF80346F1
:1022DC00002B0FD17B680F2B09D8002279684FF0A7
:1022EC00FF3001F01AF8094A7B68136007E00123FC
:1022FC00FB7304E00123FB7301E00123FB73FB7B05
:10230C0018461037BD4680BD100000200C00002080
:10231C0080B400AF064B1B781A46064B1B6813445F
:10232C00044A136000BFBD465DF8047B704700BFD4
:10233C0010000020980B002080B400AF034B1B68EA
:10234C001846BD465DF8047B704700BF980B002013
:10235C0080B400AF034B1B681846BD465DF8047B88
:10236C00704700BF0C00002080B483B000AF7860D1
:10237C0039607B689B6823F47C123B681A437B684A
:10238C009A6000BF0C37BD465DF8047B704780B483
:10239C0083B000AF786039607B689B6823F0E07293
:1023AC003B681A437B689A6000BF0C37BD465DF8EA
:1023BC00047B704780B483B000AF78607B689B6807
:1023CC0003F0E07318460C37BD465DF8047B70478C
:1023DC0080B487B000AFF860B9607A603B60FB688E
:1023EC0060331A46BB689B0013447B617B691A6897
:1023FC00084B13407A6802F0F8413A680A431343D9
:10240C0043F000427B691A6000BF1C37BD465DF883
:10241C00047B704700F0FF0380B485B000AF786098
:10242C0039607B6860331A463B689B001344FB6041
:10243C00FB681B6803F0F84318461437BD465DF87B
:10244C00047B704780B487B000AFF860B9607A60E5
:10245C00FB6860331A46BB689B0013447B617B6945
:10246C001B6823F000427B681A437B691A6000BF2B
:10247C001C37BD465DF8047B704780B487B000AF55
:10248C00F860B9607A60FB6830331A46BB681B0A87
:10249C009B0003F00C0313447B617B691A68BB68D7
:1024AC0003F01F031F2101FA03F3DB431A407B687F
:1024BC009B0E03F01F01BB6803F01F0301FA03F32B
:1024CC001A437B691A6000BF1C37BD465DF8047B5C
:1024DC00704780B487B000AFF860B9607A60FB6871
:1024EC0014331A46BB685B0E9B0003F004031344C1
:1024FC007B617B691A68BB681B0D03F01F03072106
:10250C0001FA03F3DB431A40BB681B0D03F01F03F6
:10251C00796801FA03F31A437B691A6000BF1C3710
:10252C00BD465DF8047B704780B485B000AFF860A1
:10253C00B9607A60FB68D3F8B020BB68C3F31203B0
:10254C00DB431A407B6803F018030849D940BB6889
:10255C000B40C3F312031A43FB68C3F8B02000BF4F
:10256C001437BD465DF8047B704700BFFFFF0700C2
:10257C0080B483B000AF78607B689B6823F0204305
:10258C0023F03F037A68936000BF0C37BD465DF8BB
:10259C00047B704780B483B000AF78607B689B6825
:1025AC0003F00053B3F1005F01D1012300E00023DD
:1025BC0018460C37BD465DF8047B704780B483B079
:1025CC0000AF78607B689B6823F0104323F03F03D7
:1025DC0043F080527B689A6000BF0C37BD465DF8B3
:1025EC00047B704780B483B000AF78607B689B68D5
:1025FC0003F08053B3F1805F01D1012300E000238D
:10260C0018460C37BD465DF8047B704780B483B028
:10261C0000AF78607B689B6803F00103012B01D14C
:10262C00012300E0002318460C37BD465DF8047BFF
:10263C00704780B483B000AF78607B689B6803F010
:10264C000403042B01D1012300E0002318460C37AE
:10265C00BD465DF8047B704780B483B000AF7860F2
:10266C007B689B6803F00803082B01D1012300E071
:10267C00002318460C37BD465DF8047B70470000FC
:10268C0080B588B000AF78600023FB770023BB6176
:10269C000023BB607B68002B01D101232EE17B68FA
:1026AC001B69002B7B685B6D002B09D17868FFF7E9
:1026BC0009FC7B6800229A657B68002283F8502015
:1026CC007B681B681846FFF765FF0346002B04D098
:1026DC007B681B681846FFF74BFF7B681B68184626
:1026EC00FFF780FF0346002B15D17B681B6818464B
:1026FC00FFF764FF834B1B689B09834AA2FB0323F0
:10270C009B0901335B00BB6002E0BB68013BBB6013
:10271C00BB68002BF9D17B681B681846FFF762FF7A
:10272C000346002B0DD17B685B6D43F010027B6878
:10273C005A657B689B6D43F001027B689A650123A7
:10274C00FB777B681B681846FFF773FF78617B6823
:10275C005B6D03F01003002B40F0C7807B69002BEE
:10276C0040F0C3807B685B6D23F4817343F00202FD
:10277C007B685A657B681B681846FFF747FF034662
:10278C00002B0BD16148FFF741FF0346002B05D10D
:10279C007B685B6819465E48FFF7E6FD7B685B7EED
:1027AC005A037B685B6B1A437B68DB681A437B6854
:1027BC009B681A437B6893F820301B041343BA6957
:1027CC001343BB617B6893F82030012B06D17B68E7
:1027DC005B6A013B5B04BA691343BB617B689B6A10
:1027EC00002B09D07B689B6A03F470727B68DB6AF0
:1027FC001343BA691343BB617B681B68DA68454BAA
:10280C0013407A681268B9690B43D3607B681B6804
:10281C001846FFF70EFF38617B681B681846FFF7F8
:10282C001BFFF8603B69002B3DD1FB68002B3AD1B4
:10283C007B681B7E9A037B6893F830305B001343F4
:10284C00BB617B681B68DB6823F4804323F00203C5
:10285C007A681268B9690B43D3607B6893F8383097
:10286C00012B18D17B681B681B6923F4FF6323F0D1
:10287C0004037A68D16B7A68126C11437A68526CD3
:10288C0011437A68926C0A431A437B681B6842F0C6
:10289C0001021A6107E07B681B681A697B681B6878
:1028AC0022F001021A617B681B69012B0CD17B6839
:1028BC001B681B6B23F00F017B68DB695A1E7B685E
:1028CC001B680A431A6307E07B681B681A6B7B68FA
:1028DC001B6822F00F021A637B685B6D23F0030305
:1028EC0043F001027B685A6507E07B685B6D43F03F
:1028FC0010027B685A650123FB77FB7F1846203753
:10290C00BD4680BD08000020632D3E05000004502C
:10291C000003045007C0F0FF80B5B6B000AF78607C
:10292C003960002387F8D7300023FB607B6893F86D
:10293C005030012B01D102239FE37B68012283F8E5
:10294C0050207B681B681846FFF773FE0346002B6C
:10295C0040F084837B6818683B6859683B681B6847
:10296C001A46FFF78AFD7B681B681846FFF761FE65
:10297C00C7F8D0007B681B681846FFF76DFEC7F8D8
:10298C00CC00D7F8D030002B40F0A681D7F8CC3053
:10299C00002B40F0A1817B6818683B6819683B6884
:1029AC009B681A46FFF795FD3B685A697B681B6864
:1029BC00DB68DB0803F003035B0002FA03F3C7F8E0
:1029CC00C8303B681B69042B0AD07B6818683B68CD
:1029DC0019693B681A68D7F8C830FFF7F9FC7BE136
:1029EC007B681B6800211846FFF716FD0346C3F3EE
:1029FC001203002B0AD17B681B6800211846FFF7D5
:102A0C000BFD03469B0E03F01F021EE07B681B6848
:102A1C0000211846FFF700FD0346C7F8BC30D7F875
:102A2C00BC3093FAA3F3C7F8B830D7F8B830C7F86E
:102A3C00C030D7F8C030002B01D1202304E0D7F8E8
:102A4C00C030B3FA83F3DBB21A463B681B68C3F39E
:102A5C001203002B05D13B681B689B0E03F01F0370
:102A6C0018E03B681B68C7F8B030D7F8B03093FA61
:102A7C00A3F3C7F8AC30D7F8AC30C7F8B430D7F8FC
:102A8C00B430002B01D1202304E0D7F8B430B3FAD2
:102A9C0083F3DBB29A4206D17B681B6800220021CB
:102AAC001846FFF7CFFC7B681B6801211846FFF71F
:102ABC00B3FC0346C3F31203002B0AD17B681B68DB
:102ACC0001211846FFF7A8FC03469B0E03F01F02DA
:102ADC001EE07B681B6801211846FFF79DFC03462E
:102AEC00C7F8A430D7F8A43093FAA3F3C7F8A030F2
:102AFC00D7F8A030C7F8A830D7F8A830002B01D1F0
:102B0C00202304E0D7F8A830B3FA83F3DBB21A46DB
:102B1C003B681B68C3F31203002B05D13B681B6891
:102B2C009B0E03F01F0318E03B681B68C7F8983036
:102B3C00D7F8983093FAA3F3C7F89430D7F89430B9
:102B4C00C7F89C30D7F89C30002B01D1202304E02F
:102B5C00D7F89C30B3FA83F3DBB29A4206D17B6888
:102B6C001B68002201211846FFF76CFC7B681B6870
:102B7C0002211846FFF750FC0346C3F31203002B47
:102B8C000AD17B681B6802211846FFF745FC0346F7
:102B9C009B0E03F01F021EE07B681B680221184687
:102BAC00FFF73AFC0346C7F88C30D7F88C3093FA11
:102BBC00A3F3C7F88830D7F88830C7F89030D7F827
:102BCC009030002B01D1202304E0D7F89030B3FAD9
:102BDC0083F3DBB21A463B681B68C3F31203002B6A
:102BEC0005D13B681B689B0E03F01F0316E03B6886
:102BFC001B68C7F88030D7F8803093FAA3F3FB67D3
:102C0C00FB6FC7F88430D7F88430002B01D1202318
:102C1C0004E0D7F88430B3FA83F3DBB29A4206D1DE
:102C2C007B681B68002202211846FFF70BFC7B68AF
:102C3C001B6803211846FFF7EFFB0346C3F312038F
:102C4C00002B0AD17B681B6803211846FFF7E4FBB5
:102C5C0003469B0E03F01F0217E07B681B680321E1
:102C6C001846FFF7D9FB03467B677B6F93FAA3F3F8
:102C7C003B673B6FBB67BB6F002B01D1202303E08D
:102C8C00BB6FB3FA83F3DBB21A463B681B68C3F322
:102C9C001203002B05D13B681B689B0E03F01F032E
:102CAC0011E03B681B68BB66BB6E93FAA3F37B66B3
:102CBC007B6EFB66FB6E002B01D1202303E0FB6EC9
:102CCC00B3FA83F3DBB29A4206D17B681B6800220D
:102CDC0003211846FFF7B6FB7B681B681846FFF705
:102CEC0095FC0346002B40F0C2817B6818683B685A
:102CFC0019683B68DB681A46FFF716FC3B68DB6813
:102D0C008E4A934240F030817B6818683B681B68A0
:102D1C00C3F31203002B0BD13B681B689B0E0133D2
:102D2C0003F01F03092B94BF01230023DBB219E02E
:102D3C003B681B68FB65FB6D93FAA3F3BB65BB6D2E
:102D4C003B663B6E002B01D1202303E03B6EB3FAB4
:102D5C0083F3DBB2013303F01F03092B94BF012370
:102D6C000023DBB2002B79D03B681B68C3F3120342
:102D7C00002B07D13B681B689B0E01339B0603F0AD
:102D8C00F84215E03B681B683B653B6D93FAA3F377
:102D9C00FB64FB6C7B657B6D002B01D1202303E076
:102DAC007B6DB3FA83F3DBB201339B0603F0F8427D
:102DBC003B681B68C3F31203002B09D13B681B68EB
:102DCC009B0E013303F01F03012101FA03F317E0FB
:102DDC003B681B687B647B6C93FAA3F33B643B6C92
:102DEC00BB64BB6C002B01D1202303E0BB6CB3FA9A
:102DFC0083F3DBB2013303F01F03012101FA03F368
:102E0C0042EA03013B681B68C3F31203002B0AD18F
:102E1C003B681B689B0E013303F01F0213465B00DB
:102E2C0013441B0518E03B681B68BB63BB6B93FA30
:102E3C00A3F37B637B6BFB63FB6B002B01D1202328
:102E4C0003E0FB6BB3FA83F3DBB2013303F01F0235
:102E5C0013465B0013441B050B4380E03B681B6867
:102E6C00C3F31203002B07D13B681B689B0E013385
:102E7C009B0603F0F84215E03B681B68FB62FB6A9B
:102E8C0093FAA3F3BB62BB6A3B633B6B002B01D190
:102E9C00202303E03B6BB3FA83F3DBB201339B06D5
:102EAC0003F0F8423B681B68C3F31203002B09D1F3
:102EBC003B681B689B0E013303F01F03012101FAD1
:102ECC0003F317E03B681B683B623B6A93FAA3F37E
:102EDC00FB61FB697B627B6A002B01D1202303E041
:102EEC007B6AB3FA83F3DBB2013303F01F030121D6
:102EFC0001FA03F342EA03013B681B68C3F31203B4
:102F0C00002B0DD13B681B689B0E013303F01F0295
:102F1C0013465B0013441E3B1B0543F000731DE07E
:102F2C003B681B687B617B6993FAA3F33B613B694C
:102F3C00BB61BB69002B03D1202305E000007F405F
:102F4C00BB69B3FA83F3DBB2013303F01F02134600
:102F5C005B0013441E3B1B0543F000730B433A68A4
:102F6C0092681946FFF7B5FA3B681A68454B13404F
:102F7C00002B7CD04448FFF71DFAC7F8C400434827
:102F8C00FFF744FB0346002B5ED13B681B68404AAD
:102F9C00934227D1D7F8C43003F40003002B21D17E
:102FAC007B681B68394A934261D1D7F8C43043F42B
:102FBC00000319463448FFF7EAF9364B1B689B09A6
:102FCC00354AA2FB03239B095A1C13465B0013448E
:102FDC009B00FB6002E0FB68013BFB60FB68002B85
:102FEC00F9D144E03B681B682C4A934213D1D7F8C3
:102FFC00C43003F08073002B0DD17B681B68234A0F
:10300C00934234D1D7F8C43043F0807319461E482C
:10301C00FFF7BDF92BE03B681B68214A934226D190
:10302C00D7F8C43003F48003002B20D17B681B68D5
:10303C00164A93421BD1D7F8C43043F48003194687
:10304C001148FFF7A4F912E07B685B6D43F0200296
:10305C007B685A65012387F8D73008E07B685B6D85
:10306C0043F020027B685A65012387F8D7307B68D0
:10307C00002283F8502097F8D7301846D837BD4631
:10308C0080BD00BF00000880000304500000045005
:10309C00000052C708000020632D3E05000084CBC1
:1030AC000100008080B485B000AF78607B6803F0CD
:1030BC000703FB600C4BDB68BB60BA684FF6FF0381
:1030CC001340BB60FB681A02BB68134343F0BF6339
:1030DC0043F40033BB60044ABB68D36000BF1437B1
:1030EC00BD465DF8047B704700ED00E080B400AF96
:1030FC00044BDB681B0A03F007031846BD465DF85A
:10310C00047B704700ED00E080B483B000AF034651
:10311C00FB7197F90730002B0BDBFB7903F01F02D7
:10312C00074997F907305B09012000FA02F241F8D0
:10313C00232000BF0C37BD465DF8047B704700BFF1
:10314C0000E100E080B483B000AF0346FB7197F957
:10315C000730002B12DBFB7903F01F020A4997F9A9
:10316C0007305B09012000FA02F2203341F82320DA
:10317C00BFF34F8F00BFBFF36F8F00BF00BF0C3783
:10318C00BD465DF8047B704700E100E080B483B07D
:10319C0000AF0346FB7197F90730002B0CDBFB7972
:1031AC0003F01F02074997F907305B09012000FA69
:1031BC0002F2403341F8232000BF0C37BD465DF8C6
:1031CC00047B704700E100E080B483B000AF03469D
:1031DC00FB7197F90730002B0CDBFB7903F01F0216
:1031EC00074997F907305B09012000FA02F26033B6
:1031FC0041F8232000BF0C37BD465DF8047B7047B7
:10320C0000E100E080B483B000AF03463960FB718D
:10321C0097F90730002B0ADB3B68DAB20C4997F9B7
:10322C0007301201D2B20B4483F800230AE03B684A
:10323C00DAB20849FB7903F00F03043B1201D2B256
:10324C000B441A7600BF0C37BD465DF8047B704703
:10325C0000E100E000ED00E080B489B000AFF86060
:10326C00B9607A60FB6803F00703FB61FB69C3F18B
:10327C000703042B28BF0423BB61FB690433062B13
:10328C0002D9FB69033B00E000237B614FF0FF3266
:10329C00BB6902FA03F3DA43BB681A407B699A40B4
:1032AC004FF0FF317B6901FA03F3D9437B680B4084
:1032BC00134318462437BD465DF8047B7047000065
:1032CC0080B582B000AF78607B68013BB3F1807F42
:1032DC0001D301230FE00A4A7B68013B53600F21A5
:1032EC004FF0FF30FFF78EFF054B00229A60044B26
:1032FC0007221A60002318460837BD4680BD00BF60
:10330C0010E000E080B582B000AF78607868FFF71D
:10331C00C9FE00BF0837BD4680BD80B586B000AF82
:10332C000346B9607A60FB73FFF7E0FE78617A6858
:10333C00B9687869FFF790FF024697F90F3011468C
:10334C001846FFF75FFF00BF1837BD4680BD80B53C
:10335C0082B000AF0346FB7197F907301846FFF7B0
:10336C00D3FE00BF0837BD4680BD80B582B000AF2C
:10337C000346FB7197F907301846FFF7E3FE00BFD1
:10338C000837BD4680BD80B582B000AF78607868E4
:10339C00FFF796FF034618460837BD4680BD80B53B
:1033AC0082B000AF0346FB7197F907301846FFF760
:1033BC00EDFE00BF0837BD4680BD80B582B000AFC2
:1033CC000346FB7197F907301846FFF7FDFE00BF67
:1033DC000837BD4680BD000080B487B000AF786070
:1033EC00396000237B614CE13B681A6801217B69E1
:1033FC0001FA03F31340FB60FB68002B00F03E81E5
:10340C003B685B6803F00303012B05D03B685B68EA
:10341C0003F00303022B30D17B689B683B617B6913
:10342C005B00032202FA03F3DB433A6913403B616E
:10343C003B68DA687B695B0002FA03F33A69134371
:10344C003B617B683A699A607B685B683B610122EF
:10345C007B6902FA03F3DB433A6913403B613B6837
:10346C005B681B0903F001027B6902FA03F33A69FA
:10347C0013433B617B683A695A603B685B6803F0B5
:10348C000303032B17D07B68DB683B617B695B0014
:10349C00032202FA03F3DB433A6913403B613B68B6
:1034AC009A687B695B0002FA03F33A6913433B6148
:1034BC007B683A69DA603B685B6803F00303022BB4
:1034CC0023D17B69DA087B68083253F822303B61E0
:1034DC007B6903F007039B000F2202FA03F3DB4323
:1034EC003A6913403B613B681A697B6903F0070337
:1034FC009B0002FA03F33A6913433B617B69DA08D8
:10350C007B680832396943F822107B681B683B6181
:10351C007B695B00032202FA03F3DB433A69134035
:10352C003B613B685B6803F003027B695B0002FA5A
:10353C0003F33A6913433B617B683A691A603B6851
:10354C005B6803F44033002B00F09880544A7B698D
:10355C009B08023352F823303B617B6903F0030371
:10356C009B000F2202FA03F3DB433A6913403B61E1
:10357C007B68B3F1904F19D07B684A4A934213D0C1
:10358C007B68494A93420DD07B68484A934207D0E6
:10359C007B68474A934201D1042308E0072306E0E5
:1035AC00032304E0022302E0012300E000237A69F4
:1035BC0002F00302920093403A6913433B6138498D
:1035CC007B699B0802333A6941F82320394B1B680D
:1035DC003B61FB68DB433A6913403B613B685B68CA
:1035EC0003F48013002B03D03A69FB6813433B614F
:1035FC00304A3B6913602F4B5B683B61FB68DB43D4
:10360C003A6913403B613B685B6803F40013002B81
:10361C0003D03A69FB6813433B61264A3B6953600C
:10362C00244BD3F880303B61FB68DB433A69134091
:10363C003B613B685B6803F48033002B03D03A6931
:10364C00FB6813433B611B4A3B69C2F88030194B42
:10365C00D3F884303B61FB68DB433A6913403B6130
:10366C003B685B6803F40033002B03D03A69FB68BA
:10367C0013433B610F4A3B69C2F884307B690133C9
:10368C007B613B681A687B6922FA03F3002B7FF499
:10369C00ABAE00BF00BF1C37BD465DF8047B704766
:1036AC00000001400004004800080048000C0048DD
:1036BC00001000480008005880B485B000AF786056
:1036CC000B467B807B681A697B881340002B02D0E9
:1036DC000123FB7301E00023FB73FB7B18461437BB
:1036EC00BD465DF8047B704780B483B000AF786052
:1036FC000B467B8013467B707B78002B03D07A883B
:10370C007B689A6102E07A887B689A6200BF0C370A
:10371C00BD465DF8047B704780B582B000AF0346B0
:10372C00FB80084BDA68FB881340002B06D0054A57
:10373C00FB88D360FB881846FDF74EF800BF0837AE
:10374C00BD4680BD0008005880B582B000AF0A4B62
:10375C00DB687B60084B1A687B68DB4306491340C7
:10376C000B60054A7B685360786800F007F800BF6F
:10377C000837BD4680BD00BF0015005880B483B02B
:10378C0000AF786000BF0C37BD465DF8047B704716
:10379C0080B582B000AF78607B68002B01D101232B
:1037AC0081E07B6893F84130DBB2002B06D17B685B
:1037BC00002283F840207868FEF7D4FB7B68242233
:1037CC0083F841207B681B681A687B681B6822F0B1
:1037DC0001021A607B685A687B681B6822F0706271
:1037EC001A617B681B689A687B681B6822F400422C
:1037FC009A607B68DB68012B07D17B689A687B68D1
:10380C001B6842F400429A6006E07B689A687B6809
:10381C001B6842F404429A607B68DB68022B04D17B
:10382C007B681B684FF400625A607B681B685B689E
:10383C007A68126843F0007343F4004353607B686A
:10384C001B68DA687B681B6822F40042DA607B68CC
:10385C001A697B685B6942EA03017B689B691A02FF
:10386C007B681B680A43DA607B68D9697B681A6AD3
:10387C007B681B680A431A607B681B681A687B6844
:10388C001B6842F001021A607B6800225A647B6854
:10389C00202283F841207B6800221A637B68002277
:1038AC0083F84220002318460837BD4680BD80B4FB
:1038BC0083B000AF786039607B6893F84130DBB23D
:1038CC00202B38D17B6893F84030012B01D1022397
:1038DC0032E07B68012283F840207B68242283F845
:1038EC0041207B681B681A687B681B6822F0010208
:1038FC001A607B681B681A687B681B6822F480520C
:10390C001A607B681B6819687B681B683A680A43F5
:10391C001A607B681B681A687B681B6842F001029E
:10392C001A607B68202283F841207B68002283F890
:10393C004020002300E0022318460C37BD465DF8FA
:10394C00047B704780B485B000AF786039607B68C9
:10395C0093F84130DBB2202B39D17B6893F840309F
:10396C00012B01D1022333E07B68012283F8402034
:10397C007B68242283F841207B681B681A687B686B
:10398C001B6822F001021A607B681B681B68FB60D5
:10399C00FB6823F47063FB603B681B02FA681343FB
:1039AC00FB607B681B68FA681A607B681B681A6886
:1039BC007B681B6842F001021A607B68202283F846
:1039CC0041207B68002283F84020002300E0022382
:1039DC0018461437BD465DF8047B704780B400AFC1
:1039EC00054B1B68044A43F48073136000BFBD464B
:1039FC005DF8047B704700BF0004005880B400AF32
:103A0C00044B1B6803F4C0631846BD465DF8047B89
:103A1C00704700BF0004005880B400AF4FF0B043B3
:103A2C001B6803F48013B3F5801F01D1012300E060
:103A3C0000231846BD465DF8047B704780B400AF88
:103A4C004FF0B0431B684FF0B04243F48033136027
:103A5C0000BFBD465DF8047B704780B400AF4FF0EB
:103A6C00B0431B684FF0B04223F48033136000BFA7
:103A7C00BD465DF8047B704780B400AF4FF0B04397
:103A8C001B6803F40033B3F5003F01D1012300E0C0
:103A9C0000231846BD465DF8047B704780B400AF28
:103AAC004FF0B0431B684FF0B04243F48073136087
:103ABC0000BFBD465DF8047B704780B400AF4FF08B
:103ACC00B0431B684FF0B04223F48073136000BF07
:103ADC00BD465DF8047B704780B400AF4FF0B04337
:103AEC001B6803F48063B3F5806F01D1012300E000
:103AFC0000231846BD465DF8047B704780B483B044
:103B0C0000AF78604FF0B0435B6823F0FE427B68F7
:103B1C001B064FF0B04113434B6000BF0C37BD4642
:103B2C005DF8047B704780B400AF4FF0B043D3F81E
:103B3C0098304FF0B04243F00103C2F8983000BF08
:103B4C00BD465DF8047B704780B400AF4FF0B043C6
:103B5C00D3F898304FF0B04223F00103C2F89830FC
:103B6C0000BFBD465DF8047B704780B400AF4FF0DA
:103B7C00B043D3F8983003F00203022B01D1012398
:103B8C0000E000231846BD465DF8047B704780B406
:103B9C0000AF4FF0B043D3F890304FF0B04243F049
:103BAC000103C2F8903000BFBD465DF8047B70473E
:103BBC0080B400AF4FF0B043D3F890304FF0B04228
:103BCC0023F00103C2F8903000BFBD465DF8047BC2
:103BDC00704780B400AF4FF0B043D3F890304FF043
:103BEC00B04243F00403C2F8903000BFBD465DF80C
:103BFC00047B704780B400AF4FF0B043D3F89030E3
:103C0C004FF0B04223F00403C2F8903000BFBD4621
:103C1C005DF8047B704780B400AF4FF0B043D3F82D
:103C2C00903003F00203022B01D1012300E00023AA
:103C3C001846BD465DF8047B704780B400AF4FF06A
:103C4C00B043D3F894304FF0B04243F00103C2F8C4
:103C5C00943000BFBD465DF8047B704780B400AF64
:103C6C004FF0B043D3F894304FF0B04223F001033F
:103C7C00C2F8943000BFBD465DF8047B704780B439
:103C8C0000AF4FF0B043D3F8943003F00203022B93
:103C9C0001D1012300E000231846BD465DF8047BEA
:103CAC00704780B400AF4FF0B043D3F894304FF06E
:103CBC00B04243F00403C2F8943000BFBD465DF837
:103CCC00047B704780B400AF4FF0B043D3F894300E
:103CDC004FF0B04223F00403C2F8943000BFBD464D
:103CEC005DF8047B704780B400AF4FF0B043D3F85D
:103CFC00943003F00803082B01D1012300E00023CA
:103D0C001846BD465DF8047B704780B483B000AFA5
:103D1C0078604FF0B043D3F8943023F470627B6832
:103D2C001B024FF0B0411343C1F8943000BF0C3765
:103D3C00BD465DF8047B704780B400AF4FF0B043D4
:103D4C001B684FF0B04243F00103136000BFBD4647
:103D5C005DF8047B704780B400AF4FF0B0431B6834
:103D6C004FF0B04223F00103136000BFBD465DF875
:103D7C00047B704780B400AF4FF0B0431B6803F076
:103D8C000203022B01D1012300E000231846BD469B
:103D9C005DF8047B704780B483B000AF78604FF05F
:103DAC00B0431B6823F0F0024FF0B0417B68134323
:103DBC000B6000BF0C37BD465DF8047B704780B4C8
:103DCC0083B000AF4FF0B0431B6803F0F0037B608F
:103DDC007B68B02B01D9B0237B607B6818460C370D
:103DEC00BD465DF8047B704780B483B000AF78604B
:103DFC004FF0B0435B6823F47F427B681B024FF0AB
:103E0C00B04113434B6000BF0C37BD465DF8047BDB
:103E1C00704780B483B000AF78604FF0B0439B68BC
:103E2C0023F003024FF0B0417B6813438B6000BF5B
:103E3C000C37BD465DF8047B704780B400AF4FF083
:103E4C00B0439B6803F00C031846BD465DF8047B39
:103E5C00704780B483B000AF78604FF0B0439B687C
:103E6C0023F0F0024FF0B0417B6813438B6000BF2E
:103E7C000C37BD465DF8047B704780B483B000AF4F
:103E8C0078604FF0B043D3F8083123F0F0024FF0D4
:103E9C00B0417B681343C1F8083100BF0C37BD46F5
:103EAC005DF8047B704780B483B000AF78604FF04E
:103EBC00B043D3F8083123F00F027B681B094FF095
:103ECC00B0411343C1F8083100BF0C37BD465DF853
:103EDC00047B704780B483B000AF78604FF0B04380
:103EEC009B6823F4E0624FF0B0417B6813438B6016
:103EFC0000BF0C37BD465DF8047B704780B483B0BF
:103F0C0000AF78604FF0B0439B6823F460524FF0E1
:103F1C00B0417B6813438B6000BF0C37BD465DF826
:103F2C00047B704780B400AF4FF0B0439B6803F044
:103F3C00F0031846BD465DF8047B704780B400AFB3
:103F4C004FF0B043D3F808311B0103F0F0031846CF
:103F5C00BD465DF8047B704780B400AF4FF0B043B2
:103F6C009B6803F4E0631846BD465DF8047B70471C
:103F7C0080B400AF4FF0B0439B6803F46053184615
:103F8C00BD465DF8047B704780B400AF4FF0B04382
:103F9C001B684FF0B04243F08073136000BFBD4606
:103FAC005DF8047B704780B400AF4FF0B0431B68E2
:103FBC004FF0B04223F08073136000BFBD465DF834
:103FCC00047B704780B400AF4FF0B0431B6803F024
:103FDC000073B3F1007F01D1012300E000231846E8
:103FEC00BD465DF8047B704780B400AF4FF0B04322
:103FFC00DB681B0A03F07F031846BD465DF8047BA3
:10400C00704780B400AF4FF0B043DB6803F06043FF
:10401C001846BD465DF8047B704780B400AF4FF086
:10402C00B043DB6803F070031846BD465DF8047BB3
:10403C00704780B400AF4FF0B043DB6803F003036C
:10404C001846BD465DF8047B704780B400AF4FF056
:10405C00B0439B6803F48033B3F5803F01D1012357
:10406C0000E000231846BD465DF8047B704780B421
:10407C0000AF4FF0B043D3F8083103F40033B3F57D
:10408C00003F01D1012300E000231846BD465DF836
:10409C00047B704780B400AF4FF0B043D3F80831C5
:1040AC0003F48033B3F5803F01D1012300E00023FA
:1040BC001846BD465DF8047B704780B400AF4FF0E6
:1040CC00B0439B6803F40033B3F5003F01D10123E7
:1040DC0000E000231846BD465DF8047B704780B4B1
:1040EC0000AF4FF0B0439B6803F48023B3F5802FEF
:1040FC0001D1012300E000231846BD465DF8047B86
:10410C007047000090B58DB000AF78607B68002BD5
:10411C0001D1012363E37B681B6803F02003002BB0
:10412C0000F08D80FFF789FEF862FFF782FFB8621E
:10413C00FB6A002B05D0FB6A0C2B47D1BB6A012B09
:10414C0044D17B68DB69002B01D1012347E37B68F9
:10415C005C6AFFF734FE03469C4214D97B685B6AA9
:10416C00184600F02FFD0346002B01D0012336E347
:10417C007B685B6A1846FFF70EFE7B681B6A184665
:10418C00FFF732FE13E07B685B6A1846FFF703FE0D
:10419C007B681B6A1846FFF727FE7B685B6A18462C
:1041AC0000F010FD0346002B01D0012317E300F0B3
:1041BC00C9FC0346A44A1360A44B1B681846FEF7BF
:1041CC006DF80346002B39D0012308E37B68DB69CB
:1041DC00002B1ED0FFF7B0FDFEF7AEF8786208E0BA
:1041EC00FEF7AAF802467B6AD31A022B01D90323E5
:1041FC00F5E2FFF7BFFD0346002BF1D07B685B6A4D
:10420C001846FFF7C8FD7B681B6A1846FFF7ECFDE4
:10421C0015E0FFF7A0FDFEF78FF8786208E0FEF7D7
:10422C008BF802467B6AD31A022B01D90323D6E200
:10423C00FFF7A0FD0346002BF1D100E000BF7B6827
:10424C001B6803F00103002B47D0FFF7F6FD386223
:10425C00FFF7EFFEF8613B6A082B05D03B6A0C2B8D
:10426C0008D1FB69032B05D17B685B68002B34D12B
:10427C000123B4E27B685B68B3F5803F02D1FFF7A2
:10428C00DDFB01E0FFF7E9FB7B685B68002B12D0DC
:10429C00FEF752F8786208E0FEF74EF802467B6AA9
:1042AC00D31A642B01D9032399E2FFF7E5FB0346EC
:1042BC00002BF1D011E0FEF73FF8786208E0FEF732
:1042CC003BF802467B6AD31A642B01D9032386E29E
:1042DC00FFF7D2FB0346002BF1D17B681B6803F080
:1042EC000203002B4CD0FFF7A8FDB861FFF7A1FE2D
:1042FC007861BB69042B05D0BB690C2B0ED17B6993
:10430C00022B0BD17B68DB68002B01D1012366E209
:10431C007B681B691846FFF7F1FB31E07B68DB68B3
:10432C00002B19D0FFF7BAFBFEF706F8786208E00D
:10433C00FEF702F802467B6AD31A022B01D903233B
:10434C004DE2FFF7C9FB0346002BF1D07B681B69DC
:10435C001846FFF7D3FB13E0FFF7AFFBFDF7ECFFBD
:10436C00786208E0FDF7E8FF02467B6AD31A022B5D
:10437C0001D9032333E2FFF7AFFB0346002BF1D146
:10438C007B681B6803F00803002B06D17B681B6855
:10439C0003F01003002B00F0A3807B685B69002BFB
:1043AC0076D07B681B6803F01003002B46D0FFF718
:1043BC0066FC0346002B13D1FFF73FFCFDF7BCFF57
:1043CC00786208E0FDF7B8FF02467B6AD31A022B2D
:1043DC0001D9032303E2FFF752FC0346002BF1D073
:1043EC00FFF75FFCFDF7A8FF786208E0FDF7A4FF7C
:1043FC0002467B6AD31A032B01D90323EFE1FFF7A3
:10440C0072FC0346002BF1D07B689B691846FFF7C2
:10441C007CFCFFF723FCFDF78FFF786208E0FDF7CB
:10442C008BFF02467B6AD31A022B01D90323D6E1F8
:10443C00FFF725FC0346002BF1D151E0FFF7FDFB04
:10444C00FDF77AFF78620CE0080000200C000020D9
:10445C00FDF772FF02467B6AD31A022B01D90323A4
:10446C00BDE1FFF70CFC0346002BF1D0FFF72AFC53
:10447C0008E0FDF761FF02467B6AD31A032B01D9D2
:10448C000323ACE1FFF72FFC0346002BF1D127E00F
:10449C00FFF718FCFDF750FF786208E0FDF74CFFC2
:1044AC0002467B6AD31A032B01D9032397E1FFF74A
:1044BC001AFC0346002BF1D1FFF7D0FBFDF73CFFB4
:1044CC00786208E0FDF738FF02467B6AD31A022BAC
:1044DC0001D9032383E1FFF7D2FB0346002BF1D173
:1044EC007B681B6803F00403002B5BD0A74B1B6895
:1044FC0003F48073002B14D1FFF770FAFDF71CFF47
:10450C00786208E0FDF718FF02467B6AD31A022B8B
:10451C0001D9032363E19D4B1B6803F48073002BCB
:10452C00F0D07B689B68012B02D1FFF730FB0CE0CD
:10453C007B689B68052B04D1FFF74BFBFFF727FB30
:10454C0003E0FFF735FBFFF755FB7B689B68002BFF
:10455C0014D0FDF7F1FE78620AE0FDF7EDFE02469D
:10456C007B6AD31A41F28832934201D9032336E194
:10457C00FFF751FB0346002BEFD013E0FDF7DCFEF9
:10458C0078620AE0FDF7D8FE02467B6AD31A41F244
:10459C008832934201D9032321E1FFF73CFB034608
:1045AC00002BEFD17B681B6803F04003002B2CD051
:1045BC007B689B6A002B14D0FFF7B5FAFDF7BCFEA5
:1045CC00786208E0FDF7B8FE02467B6AD31A022B2C
:1045DC0001D9032303E1FFF7C8FA0346002BF1D0FE
:1045EC0013E0FFF7B1FAFDF7A7FE786208E0FDF7DC
:1045FC00A3FE02467B6AD31A022B01D90323EEE0F9
:10460C00FFF7B3FA0346002BF1D17B68DB6A002B72
:10461C0000F0E480FFF711FC38614FF0B043DB6829
:10462C00FB607B68DB6A022B40F0B480FB6803F014
:10463C0003027B681B6B9A4223D1FB6803F0700268
:10464C007B685B6B9A421CD1FB681B0A03F07F02F0
:10465C007B689B6B9A4214D1FB6803F478127B68DD
:10466C00DB6B9A420DD1FB6803F060627B681B6CBC
:10467C009A4206D1FB6803F060427B685B6C9A42FD
:10468C005DD03B690C2B58D04FF0B0431B6803F046
:10469C008063002B01D00123A1E0FFF784FCFDF720
:1046AC004BFE786208E0FDF747FE02467B6AD31AA0
:1046BC00022B01D9032392E04FF0B0431B6803F0A7
:1046CC000073002BEFD14FF0B043DA68304B13403E
:1046DC007A68116B7A68526B11437A68926B12028A
:1046EC0011437A68D26B11437A68126C11437A6861
:1046FC00526C0A434FF0B0411343CB60FFF744FCBC
:10470C004FF0B043DB684FF0B04243F08053D360BE
:10471C00FDF712FE786208E0FDF70EFE02467B6A9A
:10472C00D31A022B01D9032359E04FF0B0431B6875
:10473C0003F00073002BEFD050E001234FE04FF05B
:10474C00B0431B6803F00073002B47D1FFF71CFC30
:10475C004FF0B043DB684FF0B04243F08053D3606E
:10476C00FDF7EAFD786208E0FDF7E6FD02467B6A9C
:10477C00D31A022B01D9032331E04FF0B0431B684D
:10478C0003F00073002BEFD028E000BF00040058AA
:10479C008C80C1113B690C2B1ED0FFF704FCFDF77C
:1047AC00CBFD786208E0FDF7C7FD02467B6AD31AA1
:1047BC00022B01D9032312E04FF0B0431B6803F026
:1047CC000073002BEFD14FF0B043DA684FF0B041DB
:1047DC00054B1340CB6001E0012300E00023184699
:1047EC003437BD4690BD00BFFCFFFEEE80B584B0F3
:1047FC0000AF786039607B68002B01D101232DE17B
:10480C00984B1B6803F007033A689A421BD9954BE7
:10481C001B6823F0070293493B6813430B60FDF7B9
:10482C008BFDF86008E0FDF787FD0246FB68D31AA4
:10483C00022B01D9032311E18A4B1B6803F00703F8
:10484C003A689A42EFD17B681B6803F00203002B95
:10485C0016D07B689B681846FFF7FBFAFDF76CFDDA
:10486C00F86008E0FDF768FD0246FB68D31A022BDE
:10487C0001D90323F2E0FFF7E8FB0346002BF1D04C
:10488C007B681B6803F02003002B16D07B685B69E8
:10489C001846FFF7F2FAFDF74FFDF86008E0FDF758
:1048AC004BFD0246FB68D31A022B01D90323D5E03A
:1048BC00FFF7DDFB0346002BF1D07B681B6803F090
:1048CC004003002B16D07B689B691846FFF7EBFA68
:1048DC00FDF732FDF86008E0FDF72EFD0246FB689F
:1048EC00D31A022B01D90323B8E0FFF7D3FB0346FD
:1048FC00002BF1D07B681B6803F00403002B16D04F
:10490C007B68DB681846FFF7E5FAFDF715FDF860E4
:10491C0008E0FDF711FD0246FB68D31A022B01D902
:10492C0003239BE0FFF7C9FB0346002BF1D07B6808
:10493C001B6803F00803002B17D07B681B69DB0096
:10494C001846FFF7DBFAFDF7F7FCF86008E0FDF717
:10495C00F3FC0246FB68D31A022B01D903237DE03A
:10496C00FFF7BDFB0346002BF1D07B681B6803F0FF
:10497C000103002B43D07B685B68022B06D1FFF749
:10498C007BF80346002B1ED1012367E07B685B6834
:10499C00032B06D1FFF716FB0346002B13D1012383
:1049AC005CE07B685B68002B06D1FFF7E3F90346FC
:1049BC00002B08D1012351E0FFF78EF80346002BA2
:1049CC0001D101234AE07B685B681846FFF721FAA6
:1049DC00FDF7B2FCF8600AE0FDF7AEFC0246FB689E
:1049EC00D31A41F28832934201D9032336E0FFF700
:1049FC0024FA02467B685B689B009A42ECD1194B07
:104A0C001B6803F007033A689A421BD2154B1B68CC
:104A1C0023F0070213493B6813430B60FDF78CFC32
:104A2C00F86008E0FDF788FC0246FB68D31A022BFD
:104A3C0001D9032312E00B4B1B6803F007033A6800
:104A4C009A42EFD100F07EF80346074A1360FDF757
:104A5C007FFC03461846FDF721FC03461846103729
:104A6C00BD4680BD004000580800002090B585B0C0
:104A7C0000AFFFF7E2F978607B68002B0AD1FFF7F3
:104A8C009EF903461B0903F00F032B4A52F82330FF
:104A9C00FB604BE07B68042B02D1284BFB6045E0AC
:104AAC007B68082B0AD1FEF7B7FF0346012B02D116
:104ABC00224BFB603AE0224BFB6037E0FFF7B9FA80
:104ACC0038603B68022B03D03B68032B03D00DE00E
:104ADC001A4BBB6015E0FEF79FFF0346012B02D17A
:104AEC00164BBB600DE0164BBB600AE0FFF767F995
:104AFC0003461B0903F00F030F4A52F82330BB6027
:104B0C0000BFFFF771FA0246BB6803FB02F4FFF724
:104B1C0084FA03461B090133B4FBF3F4FFF771FA73
:104B2C0003465B0F0133B4FBF3F3FB60FB681846E1
:104B3C001437BD4690BD00BF48AA00080024F400FD
:104B4C000048E80198B500AFFFF790FF0446FFF767
:104B5C00E9F903461B0903F00F03034A52F823300B
:104B6C00B4FBF3F3184698BDE8A9000898B500AF5C
:104B7C00FFF7E8FF0446FFF7EFF903461B0A03F0C3
:104B8C000703044A52F8233003F01F0324FA03F3FB
:104B9C00184698BD28AA000898B500AFFFF7D2FFB9
:104BAC000446FFF7E5F90346DB0A03F00703044A62
:104BBC0052F8233003F01F0324FA03F3184698BD70
:104BCC0028AA000890B585B000AF78607B68B02B40
:104BDC0003D9154BDB6AFB6007E07B681B0903F00C
:104BEC000F03114A52F82330FB60FFF7A7F9034675
:104BFC001B0903F00F030D4A52F82330FA68B2FB7D
:104C0C00F3F3BB60BB680A4AA2FB03239C0CFEF7C0
:104C1C00F5FE03461946204600F00CF803461846EC
:104C2C001437BD4690BD00BF48AA0008E8A900088B
:104C3C0083DE1B4390B593B000AF78603960374B7F
:104C4C0007F128040FCB84E80F00354A07F11C0349
:104C5C0007CA83E80700334B07F10C040FCB84E839
:104C6C000F0000237B643B68B3F5007F1AD100234F
:104C7C003B6413E03B6C9B0048333B4453F8203CB3
:104C8C007A689A4207D83B6C9B0048333B4453F8F4
:104C9C003C3C7B6420E03B6C01333B643B6C032B62
:104CAC00E8D919E00023FB6313E0FB6B9B0048334E
:104CBC003B4453F82C3C7A689A4207D8FB6B9B0018
:104CCC0048333B4453F83C3C7B6405E0FB6B0133BD
:104CDC00FB63FB6B022BE8D9134B1B6823F0070219
:104CEC0011497B6C13430B60FDF726FBB86308E09E
:104CFC00FDF722FB0246BB6BD31A022B01D903230F
:104D0C0007E0094B1B6803F007037A6C9A42EFD15A
:104D1C00002318464C37BD4690BD00BF48A800087C
:104D2C0058A8000864A800080040005880B400AFE0
:104D3C004FF0B043D3F8903003F00103012B01D1B5
:104D4C00012300E000231846BD465DF8047B704744
:104D5C0080B400AF4FF0B043D3F8903003F00203AF
:104D6C00022B01D1012300E000231846BD465DF85B
:104D7C00047B704780B483B000AF78604FF0B043D1
:104D8C00D3F8943023F440424FF0B0417B68134386
:104D9C00C1F8943000BF0C37BD465DF8047B7047FA
:104DAC0080B483B000AF78604FF0B0435B6A23F0FF
:104DBC0003024FF0B0417B6813434B6200BF0C37CA
:104DCC00BD465DF8047B704780B483B000AF78605B
:104DDC004FF0B0435B6A23F030024FF0B0417B6878
:104DEC0013434B6200BF0C37BD465DF8047B704724
:104DFC0080B483B000AF78604FF0B043D3F8883004
:104E0C0023F003024FF0B0417B681343C1F88830A4
:104E1C0000BF0C37BD465DF8047B704780B483B08F
:104E2C0000AF78604FF0B043D3F8883023F4406281
:104E3C004FF0B0417B681343C1F8883000BF0C378A
:104E4C00BD465DF8047B704780B483B000AF7860DA
:104E5C004FF0B043D3F888207B681B0903F47F2301
:104E6C00DB431A407B681B0103F47F234FF0B041F6
:104E7C001343C1F8883000BF0C37BD465DF8047B86
:104E8C00704780B483B000AF78604FF0B043D3F874
:104E9C0088207B681B0C1B04DB431A407B681B04BB
:104EAC004FF0B0411343C1F8883000BF0C37BD46FA
:104EBC005DF8047B704780B483B000AF78604FF02E
:104ECC00B043D3F8883023F440024FF0B0417B68F4
:104EDC001343C1F8883000BF0C37BD465DF8047B26
:104EEC00704780B483B000AF78604FF0B043D3F814
:104EFC00883023F040424FF0B0417B681343C1F837
:104F0C00883000BF0C37BD465DF8047B704780B419
:104F1C0083B000AF78604FF0B043D3F8883023F003
:104F2C0040624FF0B0417B681343C1F8883000BF3A
:104F3C000C37BD465DF8047B704780B582B000AF7E
:104F4C0078607868FFF7E3FF00BF0837BD4680BD87
:104F5C0080B483B000AF78604FF0B043D3F88830A2
:104F6C0023F040524FF0B0417B681343C1F88830B6
:104F7C0000BF0C37BD465DF8047B704780B483B02E
:104F8C0000AF78604FF0B043D3F8903023F4407208
:104F9C004FF0B0417B681343C1F8903000BF0C3721
:104FAC00BD465DF8047B704780B400AF4FF0B04352
:104FBC00D3F8903003F440731846BD465DF8047B7B
:104FCC00704780B400AF4FF0B043D3F890304FF03F
:104FDC00B04243F48033C2F8903000BFBD465DF858
:104FEC00047B704780B400AF4FF0B043D3F89030DF
:104FFC004FF0B04223F48033C2F8903000BFBD466E
:10500C005DF8047B704780B400AF4FF0B0431B6871
:10501C004FF0B04243F08063136000BFBD465DF8B3
:10502C00047B704780B400AF4FF0B0431B684FF067
:10503C00B04223F08063136000BFBD465DF8047B73
:10504C00704780B400AF4FF0B0431B6803F00063AF
:10505C00B3F1006F01D1012300E000231846BD46D7
:10506C005DF8047B704780B588B000AF7860002392
:10507C00FB770023BB777B681B6803F04003002B96
:10508C0034D07B681B6BB3F5400F21D0B3F5400FC8
:10509C001BD8B3F5000F1DD0B3F5000F15D8002B9E
:1050AC000BD0B3F5800F10D14FF0B043DB684FF04D
:1050BC00B04243F48033D3600DE07B680433184670
:1050CC0000F047F90346FB7705E00123FB7702E08C
:1050DC0000BF00E000BFFB7F002B05D17B681B6B82
:1050EC001846FFF7E8FE01E0FB7FBB777B681B6887
:1050FC0003F40063002B46D0FFF756FFB8617B68C2
:10510C001B6CBA699A423CD0FEF768FCBB69002B59
:10511C0005D17B681B6C1846FFF730FF2EE04FF073
:10512C00B043D3F890307B61FFF74BFFFFF75AFF8A
:10513C007B6923F440727B681B6C13437B614FF0DB
:10514C00B0427B69C2F89030FFF7F0FD0346012BAB
:10515C0014D1FDF7F1F838610BE0FDF7EDF80246DC
:10516C003B69D31A41F28832934202D90323FB776D
:10517C0004E0FFF7EDFD0346012BEED1FB7FBB777F
:10518C0001E0FB7FBB777B681B6803F00103002BFE
:10519C0004D07B689B691846FFF72AFE7B681B6866
:1051AC0003F00203002B04D07B68DB691846FFF781
:1051BC0035FE7B681B6803F01003002B04D07B6862
:1051CC009B6A1846FFF75DFE7B681B6803F02003A3
:1051DC00002B04D07B68DB6A1846FFF752FE7B6815
:1051EC001B6803F00403002B04D07B681B6A184671
:1051FC00FFF72AFE7B681B6803F00803002B04D022
:10520C007B685B6A1846FFF71FFE7B681B6803F41C
:10521C008073002B22D07B685B6B1846FFF78DFEEA
:10522C007B685B6BB3F1006F07D14FF0B043DB6869
:10523C004FF0B04243F08073D3607B685B6BB3F18B
:10524C00806F0BD17B680433184600F0DDF8034601
:10525C00FB77FB7F002B01D0FB7FBB777B681B6848
:10526C0003F40073002B2BD07B689B6BB3F1804F46
:10527C0008D07B689B6BB3F1004F03D07B689B6BB2
:10528C00002B05D17B689B6B1846FFF72AFE0AE0C2
:10529C007B689B6B23F08053FB600020FFF721FEA3
:1052AC00F868FFF734FE7B689B6BB3F1C05F07D1E6
:1052BC004FF0B043DB684FF0B04243F08073D360E3
:1052CC007B681B6803F48063002B22D07B68DB6B4C
:1052DC001846FFF73DFE7B68DB6BB3F1005F07D12F
:1052EC004FF0B043DB684FF0B04243F48033D360EF
:1052FC007B68DB6BB3F1805F0BD17B6804331846A2
:10530C0000F0DDF80346FB77FB7F002B01D0FB7F21
:10531C00BB777B681B6803F48053002B04D07B683D
:10532C005B6C1846FFF726FD7B681B6803F4005383
:10533C00002B09D07B68DB6C1846FFF745FD7B68BA
:10534C009B6C1846FFF72CFDBB7F18462037BD46DB
:10535C0080BD80B584B000AF78600023FB73FFF78D
:10536C0061FEFCF7E9FFB86009E0FCF7E5FF0246D7
:10537C00BB68D31A022B02D90323FB7304E0FFF79B
:10538C0060FE0346002BF0D1FB7B002B37D14FF096
:10539C00B0431B6923F4FE427B681B681B024FF071
:1053AC00B04113430B614FF0B0431B6923F47812E7
:1053BC007B685B684FF0B04113430B61FFF723FE32
:1053CC00FCF7BAFFB86009E0FCF7B6FF0246BB6811
:1053DC00D31A022B02D90323FB7304E0FFF731FE2F
:1053EC000346012BF0D1FB7B002B08D14FF0B043CF
:1053FC001A697B681B694FF0B04113430B61FB7B4F
:10540C0018461037BD4680BD80B584B000AF7860BB
:10541C000023FB73FFF706FEFCF78EFFB86009E074
:10542C00FCF78AFF0246BB68D31A022B02D903236E
:10543C00FB7304E0FFF705FE0346002BF0D1FB7B6A
:10544C00002B37D14FF0B0431B6923F4FE427B682D
:10545C001B681B024FF0B04113430B614FF0B0437C
:10546C001B6923F060627B689B684FF0B04113436B
:10547C000B61FFF7C8FDFCF75FFFB86009E0FCF7B4
:10548C005BFF0246BB68D31A022B02D90323FB73C2
:10549C0004E0FFF7D6FD0346012BF0D1FB7B002B7C
:1054AC0008D14FF0B0431A697B681B694FF0B041CB
:1054BC0013430B61FB7B18461037BD4680BD80B58E
:1054CC0084B000AF78600023FB73FFF7ABFDFCF7F3
:1054DC0033FFB86009E0FCF72FFF0246BB68D31A14
:1054EC00022B02D90323FB7304E0FFF7AAFD03464A
:1054FC00002BF0D1FB7B002B37D14FF0B0431B6955
:10550C0023F4FE427B681B681B024FF0B04113432F
:10551C000B614FF0B0431B6923F060427B68DB6882
:10552C004FF0B04113430B61FFF76DFDFCF704FF27
:10553C00B86009E0FCF700FF0246BB68D31A022BE7
:10554C0002D90323FB7304E0FFF77BFD0346012B19
:10555C00F0D1FB7B002B08D14FF0B0431A697B686C
:10556C001B694FF0B04113430B61FB7B184610379E
:10557C00BD4680BD80B584B000AF78607B68002BE1
:10558C0001D101239FE07B6893F82130DBB2002B23
:10559C0006D17B68002283F820207868FCF72AFD6E
:1055AC007B68022283F82120494BDB6803F010034F
:1055BC00102B7ED07B681B68CA225A627B681B68E2
:1055CC0053225A62786800F0ABF80346002B0AD0DD
:1055DC007B681B68FF225A627B68042283F82120B7
:1055EC000123FB7367E07B681B689B687A68126811
:1055FC0023F4E00323F0400393607B681B689968F5
:10560C007B685A687B681B691A437B689B691A43E1
:10561C007B681B680A439A607B681B687A68D2684F
:10562C001A617B681B6819697B689B681A047B6824
:10563C001B680A431A617B681B68DA687B681B6805
:10564C0022F08002DA607B681B68DA6C7B681B686E
:10565C0022F00302DA647B681B68D96C7B68DA6918
:10566C007B685B691A437B681B680A43DA647B6856
:10567C001B689B6803F02003002B13D1786800F0A3
:10568C0029F80346002B0DD07B681B68FF225A6259
:10569C007B68042283F821207B68002283F8202079
:1056AC00012310E07B681B68FF225A620023FB7306
:1056BC0001E00023FB73FB7B002B03D17B680122F1
:1056CC0083F82120FB7B18461037BD4680BD00BFF8
:1056DC000028004080B584B000AF78607B681B6800
:1056EC00DA687B681B6822F0A002DA60FCF724FE03
:1056FC00F86009E0FCF720FE0246FB68D31AB3F50C
:10570C007A7F01D9032307E07B681B68DB6803F011
:10571C002003002BEED0002318461037BD4680BD69
:10572C0080B584B000AF78607B681B68DB6803F0E1
:10573C004003002B19D17B681B684FF0FF32DA60F5
:10574C00FCF7FAFDF86009E0FCF7F6FD0246FB6891
:10575C00D31AB3F57A7F01D9032307E07B681B6862
:10576C00DB6803F04003002BEED000231846103703
:10577C00BD4680BD80B584B000AF78607B68002BDF
:10578C0001D1012395E07B685B6A002B08D17B6813
:10579C005B68B3F5827F09D07B680022DA6105E093
:1057AC007B6800221A617B6800225A617B680022A8
:1057BC009A627B6893F85D30DBB2002B06D17B6874
:1057CC00002283F85C207868FCF740FC7B6802229E
:1057DC0083F85D207B681B681A687B681B6822F065
:1057EC0040021A607B68DB68B3F5E06F02D90023D6
:1057FC00FB6002E04FF48053FB607B68DB68B3F521
:10580C00706F07D07B68DB68B3F5E06F02D07B6804
:10581C0000229A627B685B6803F482727B689B68E7
:10582C0003F404431A437B681B6903F002031A4315
:10583C007B685B6903F001031A437B689B6903F483
:10584C0000731A437B68DB6903F038031A437B68E7
:10585C001B6A03F0800342EA03017B689B6A03F432
:10586C0000527B681B680A431A607B689B691B0C9F
:10587C0003F004027B685B6A03F010031A437B6835
:10588C005B6B03F008031A437B68DB6803F47063FB
:10589C0042EA0301FB6803F480527B681B680A43ED
:1058AC005A607B6800221A667B68012283F85D20AF
:1058BC00002318461037BD4680BD80B588B000AFB8
:1058CC00F860B9603B601346FB800023FB77FB68F4
:1058DC0093F85C30012B01D1022358E1FB680122C3
:1058EC0083F85C20FCF728FDB861FB88FB82FB6821
:1058FC0093F85D30DBB2012B02D00223FB773DE144
:10590C00BB68002B02D0FB88002B02D10123FB7754
:10591C0034E1FB68032283F85D20FB6800221A66E1
:10592C00FB68BA689A63FB68FA889A87FB68FA88FE
:10593C00DA87FB6800221A64FB680022A3F8442073
:10594C00FB680022A3F84620FB6800221A65FB685E
:10595C000022DA64FB689B68B3F5004F0FD1FB683B
:10596C001B681A68FB681B6822F040021A60FB680F
:10597C001B681A68FB681B6842F480421A60FB685B
:10598C001B681B6803F04003402B07D0FB681B68A7
:10599C001A68FB681B6842F040021A60FB68DB68FF
:1059AC00B3F5E06F4BD9FB685B68002B02D0FB8A28
:1059BC00012B3ED1FB689B6B1A88FB681B68DA6075
:1059CC00FB689B6B9A1CFB689A63FB68DB8F9BB232
:1059DC00013B9AB2FB68DA872BE0FB681B689B687B
:1059EC0003F00203022B12D1FB689B6B1A88FB6835
:1059FC001B68DA60FB689B6B9A1CFB689A63FB68FC
:105A0C00DB8F9BB2013B9AB2FB68DA8711E0FCF7A3
:105A1C0093FC0246BB69D31A3A689A4203D83B6896
:105A2C00B3F1FF3F02D13B68002B02D10323FB777C
:105A3C00A4E0FB68DB8F9BB2002BCED17CE0FB6833
:105A4C005B68002B02D0FB8A012B70D1FB68DB8FCB
:105A5C009BB2012B12D9FB689B6B1A88FB681B68E5
:105A6C00DA60FB689B6B9A1CFB689A63FB68DB8FA4
:105A7C009BB2023B9AB2FB68DA8758E0FB689A6BE0
:105A8C00FB681B680C3312781A70FB689B6B5A1CF2
:105A9C00FB689A63FB68DB8F9BB2013B9AB2FB6895
:105AAC00DA8744E0FB681B689B6803F00203022B57
:105ABC002BD1FB68DB8F9BB2012B12D9FB689B6B44
:105ACC001A88FB681B68DA60FB689B6B9A1CFB6886
